:03000000020003F8
:0C000300787FE4F6D8FD75811202004AF7
:0D00A5000B08C0F9A4B0999282F880900079
:0B008F0074082DF8E6F5A07F507EC33A
:0B009A00EF1FAC0670011E4C70F62238
:0900B300E4FD12008F0DBD0AF9F5
:0100BC002221
:0700BD007D0912008FDDFB3D
:0100C4002219
:0500C5001200B380FBF6
:10000F000200C5E493A3F8E493A34003F68001F242
:10001F0008DFF48029E493A3F85407240CC8C333F2
:10002F00C4540F4420C8834004F456800146F6DFC1
:10003F00E4800B01020408102040809000A5E47EAC
:10004F00019360BCA3FF543F30E509541FFEE493B6
:10005F00A360010ECF54C025E060A840B8E493A37D
:10006F00FAE493A3F8E493A3C8C582C8CAC583CAA8
:10007F00F0A3C8C582C8CAC583CADFE9DEE780BE60
:0100B200004D
:00000001FF
